{
  "address": "0xe7f1725E7734CE288F8367e1Bb143E90bb3F0512",
  "abi": [
    {
      "inputs": [],
      "name": "DoNotHaveApprovalToSellNft",
      "type": "error"
    },
    {
      "inputs": [
        {
          "internalType": "address",
          "name": "nftAddress",
          "type": "address"
        },
        {
          "internalType": "uint256",
          "name": "tokenId",
          "type": "uint256"
        }
      ],
      "name": "NotForSale",
      "type": "error"
    },
    {
      "inputs": [
        {
          "internalType": "address",
          "name": "_nftAddress",
          "type": "address"
        },
        {
          "internalType": "uint256",
          "name": "_tokenId",
          "type": "uint256"
        }
      ],
      "name": "PriceNotMatched",
      "type": "error"
    },
    {
      "inputs": [],
      "name": "PriceShouldBeGreaterThanZero",
      "type": "error"
    },
    {
      "inputs": [],
      "name": "ReentrancyGuardReentrantCall",
      "type": "error"
    },
    {
      "inputs": [],
      "name": "TheTokenDoesNotBelongToTheSender",
      "type": "error"
    },
    {
      "inputs": [
        {
          "internalType": "address",
          "name": "_nftAddress",
          "type": "address"
        },
        {
          "internalType": "uint256",
          "name": "_tokenId",
          "type": "uint256"
        }
      ],
      "name": "buyNft721",
      "outputs": [],
      "stateMutability": "payable",
      "type": "function"
    },
    {
      "inputs": [
        {
          "internalType": "address",
          "name": "_nftAddress",
          "type": "address"
        },
        {
          "internalType": "uint256",
          "name": "_tokenId",
          "type": "uint256"
        },
        {
          "internalType": "uint256",
          "name": "price",
          "type": "uint256"
        }
      ],
      "name": "sellNft721",
      "outputs": [],
      "stateMutability": "nonpayable",
      "type": "function"
    }
  ],
  "transactionHash": "0x4ce421f991c7c441e56b3abe078ada4b3352721fad2a2cc79b54b59b29a8cab7",
  "args": [],
  "numDeployments": 1,
  "solcInputHash": "13eb51290cf9080a65742c5d93a67da4",
  "bytecode": "0x608060405234801561001057600080fd5b506001600081905550610ad2806100286000396000f3fe6080604052600436106100295760003560e01c80636263b7711461002e5780636d64576f1461004a575b600080fd5b6100486004803603810190610043919061080c565b610073565b005b34801561005657600080fd5b50610071600480360381019061006c919061084c565b610447565b005b81816000600160008473ffffffffffffffffffffffffffffffffffffffff1673ffffffffffffffffffffffffffffffffffffffff16815260200190815260200160002060008381526020019081526020016000206040518060400160405290816000820160009054906101000a900473ffffffffffffffffffffffffffffffffffffffff1673ffffffffffffffffffffffffffffffffffffffff1673ffffffffffffffffffffffffffffffffffffffff1681526020016001820154815250509050600081602001511161017f5782826040517f31d1e0140000000000000000000000000000000000000000000000000000000081526004016101769291906108bd565b60405180910390fd5b610187610723565b6000600160008773ffffffffffffffffffffffffffffffffffffffff1673ffffffffffffffffffffffffffffffffffffffff16815260200190815260200160002060008681526020019081526020016000206040518060400160405290816000820160009054906101000a900473ffffffffffffffffffffffffffffffffffffffff1673ffffffffffffffffffffffffffffffffffffffff1673ffffffffffffffffffffffffffffffffffffffff168152602001600182015481525050905080602001513410156102915785856040517f177076360000000000000000000000000000000000000000000000000000000081526004016102889291906108bd565b60405180910390fd5b6000816000015173ffffffffffffffffffffffffffffffffffffffff16346040516102bb90610917565b60006040518083038185875af1925050503d80600081146102f8576040519150601f19603f3d011682016040523d82523d6000602084013e6102fd565b606091505b5050905080610341576040517f08c379a000000000000000000000000000000000000000000000000000000000815260040161033890610989565b60405180910390fd5b600160008873ffffffffffffffffffffffffffffffffffffffff1673ffffffffffffffffffffffffffffffffffffffff1681526020019081526020016000206000878152602001908152602001600020600080820160006101000a81549073ffffffffffffffffffffffffffffffffffffffff0219169055600182016000905550508673ffffffffffffffffffffffffffffffffffffffff166342842e0e836000015133896040518463ffffffff1660e01b815260040161040493929190610a08565b600060405180830381600087803b15801561041e57600080fd5b505af1158015610432573d6000803e3d6000fd5b505050505050610440610769565b5050505050565b82823360008390508173ffffffffffffffffffffffffffffffffffffffff168173ffffffffffffffffffffffffffffffffffffffff16636352211e856040518263ffffffff1660e01b815260040161049f9190610a3f565b602060405180830381865afa1580156104bc573d6000803e3d6000fd5b505050506040513d601f19601f820116820180604052508101906104e09190610a6f565b73ffffffffffffffffffffffffffffffffffffffff161461052d576040517f9e507edc00000000000000000000000000000000000000000000000000000000815260040160405180910390fd5b60008511610567576040517f8bf2b88800000000000000000000000000000000000000000000000000000000815260040160405180910390fd5b60008790503073ffffffffffffffffffffffffffffffffffffffff168173ffffffffffffffffffffffffffffffffffffffff1663081812fc896040518263ffffffff1660e01b81526004016105bc9190610a3f565b602060405180830381865afa1580156105d9573d6000803e3d6000fd5b505050506040513d601f19601f820116820180604052508101906105fd9190610a6f565b73ffffffffffffffffffffffffffffffffffffffff161461064a576040517fe6c9bb0000000000000000000000000000000000000000000000000000000000815260040160405180910390fd5b60405180604001604052803373ffffffffffffffffffffffffffffffffffffffff16815260200187815250600160008a73ffffffffffffffffffffffffffffffffffffffff1673ffffffffffffffffffffffffffffffffffffffff168152602001908152602001600020600089815260200190815260200160002060008201518160000160006101000a81548173ffffffffffffffffffffffffffffffffffffffff021916908373ffffffffffffffffffffffffffffffffffffffff160217905550602082015181600101559050505050505050505050565b60026000540361075f576040517f3ee5aeb500000000000000000000000000000000000000000000000000000000815260040160405180910390fd5b6002600081905550565b6001600081905550565b600080fd5b600073ffffffffffffffffffffffffffffffffffffffff82169050919050565b60006107a382610778565b9050919050565b6107b381610798565b81146107be57600080fd5b50565b6000813590506107d0816107aa565b92915050565b6000819050919050565b6107e9816107d6565b81146107f457600080fd5b50565b600081359050610806816107e0565b92915050565b6000806040838503121561082357610822610773565b5b6000610831858286016107c1565b9250506020610842858286016107f7565b9150509250929050565b60008060006060848603121561086557610864610773565b5b6000610873868287016107c1565b9350506020610884868287016107f7565b9250506040610895868287016107f7565b9150509250925092565b6108a881610798565b82525050565b6108b7816107d6565b82525050565b60006040820190506108d2600083018561089f565b6108df60208301846108ae565b9392505050565b600081905092915050565b50565b60006109016000836108e6565b915061090c826108f1565b600082019050919050565b6000610922826108f4565b9150819050919050565b600082825260208201905092915050565b7f5472616e73666572206661696c65640000000000000000000000000000000000600082015250565b6000610973600f8361092c565b915061097e8261093d565b602082019050919050565b600060208201905081810360008301526109a281610966565b9050919050565b6000819050919050565b60006109ce6109c96109c484610778565b6109a9565b610778565b9050919050565b60006109e0826109b3565b9050919050565b60006109f2826109d5565b9050919050565b610a02816109e7565b82525050565b6000606082019050610a1d60008301866109f9565b610a2a602083018561089f565b610a3760408301846108ae565b949350505050565b6000602082019050610a5460008301846108ae565b92915050565b600081519050610a69816107aa565b92915050565b600060208284031215610a8557610a84610773565b5b6000610a9384828501610a5a565b9150509291505056fea2646970667358221220edb054f928e7cdd7c51a37ac16b09e10fa0520cea38a4d735527799115dec8c464736f6c63430008140033",
  "devdoc": {
    "errors": {
      "ReentrancyGuardReentrantCall()": [
        {
          "details": "Unauthorized reentrant call."
        }
      ]
    },
    "kind": "dev",
    "methods": {},
    "version": 1
  },
  "userdoc": {
    "kind": "user",
    "methods": {},
    "version": 1
  },
  "storageLayout": {
    "storage": [
      {
        "astId": 1647,
        "contract": "contracts/BlockBid.sol:BlockBid",
        "label": "_status",
        "offset": 0,
        "slot": "0",
        "type": "t_uint256"
      },
      {
        "astId": 3192,
        "contract": "contracts/BlockBid.sol:BlockBid",
        "label": "nftListed721",
        "offset": 0,
        "slot": "1",
        "type": "t_mapping(t_address,t_mapping(t_uint256,t_struct(listing721)3185_storage))"
      }
    ],
    "types": {
      "t_address": {
        "encoding": "inplace",
        "label": "address",
        "numberOfBytes": "20"
      },
      "t_address_payable": {
        "encoding": "inplace",
        "label": "address payable",
        "numberOfBytes": "20"
      },
      "t_mapping(t_address,t_mapping(t_uint256,t_struct(listing721)3185_storage))": {
        "encoding": "mapping",
        "key": "t_address",
        "label": "mapping(address => mapping(uint256 => struct BlockBid.listing721))",
        "numberOfBytes": "32",
        "value": "t_mapping(t_uint256,t_struct(listing721)3185_storage)"
      },
      "t_mapping(t_uint256,t_struct(listing721)3185_storage)": {
        "encoding": "mapping",
        "key": "t_uint256",
        "label": "mapping(uint256 => struct BlockBid.listing721)",
        "numberOfBytes": "32",
        "value": "t_struct(listing721)3185_storage"
      },
      "t_struct(listing721)3185_storage": {
        "encoding": "inplace",
        "label": "struct BlockBid.listing721",
        "members": [
          {
            "astId": 3182,
            "contract": "contracts/BlockBid.sol:BlockBid",
            "label": "owner",
            "offset": 0,
            "slot": "0",
            "type": "t_address_payable"
          },
          {
            "astId": 3184,
            "contract": "contracts/BlockBid.sol:BlockBid",
            "label": "price",
            "offset": 0,
            "slot": "1",
            "type": "t_uint256"
          }
        ],
        "numberOfBytes": "64"
      },
      "t_uint256": {
        "encoding": "inplace",
        "label": "uint256",
        "numberOfBytes": "32"
      }
    }
  }
}