{
  "address": "0x5FbDB2315678afecb367f032d93F642f64180aa3",
  "abi": [
    {
      "inputs": [],
      "stateMutability": "nonpayable",
      "type": "constructor"
    },
    {
      "inputs": [
        {
          "internalType": "address",
          "name": "sender",
          "type": "address"
        },
        {
          "internalType": "uint256",
          "name": "tokenId",
          "type": "uint256"
        },
        {
          "internalType": "address",
          "name": "owner",
          "type": "address"
        }
      ],
      "name": "ERC721IncorrectOwner",
      "type": "error"
    },
    {
      "inputs": [
        {
          "internalType": "address",
          "name": "operator",
          "type": "address"
        },
        {
          "internalType": "uint256",
          "name": "tokenId",
          "type": "uint256"
        }
      ],
      "name": "ERC721InsufficientApproval",
      "type": "error"
    },
    {
      "inputs": [
        {
          "internalType": "address",
          "name": "approver",
          "type": "address"
        }
      ],
      "name": "ERC721InvalidApprover",
      "type": "error"
    },
    {
      "inputs": [
        {
          "internalType": "address",
          "name": "operator",
          "type": "address"
        }
      ],
      "name": "ERC721InvalidOperator",
      "type": "error"
    },
    {
      "inputs": [
        {
          "internalType": "address",
          "name": "owner",
          "type": "address"
        }
      ],
      "name": "ERC721InvalidOwner",
      "type": "error"
    },
    {
      "inputs": [
        {
          "internalType": "address",
          "name": "receiver",
          "type": "address"
        }
      ],
      "name": "ERC721InvalidReceiver",
      "type": "error"
    },
    {
      "inputs": [
        {
          "internalType": "address",
          "name": "sender",
          "type": "address"
        }
      ],
      "name": "ERC721InvalidSender",
      "type": "error"
    },
    {
      "inputs": [
        {
          "internalType": "uint256",
          "name": "tokenId",
          "type": "uint256"
        }
      ],
      "name": "ERC721NonexistentToken",
      "type": "error"
    },
    {
      "anonymous": false,
      "inputs": [
        {
          "indexed": true,
          "internalType": "address",
          "name": "owner",
          "type": "address"
        },
        {
          "indexed": true,
          "internalType": "address",
          "name": "approved",
          "type": "address"
        },
        {
          "indexed": true,
          "internalType": "uint256",
          "name": "tokenId",
          "type": "uint256"
        }
      ],
      "name": "Approval",
      "type": "event"
    },
    {
      "anonymous": false,
      "inputs": [
        {
          "indexed": true,
          "internalType": "address",
          "name": "owner",
          "type": "address"
        },
        {
          "indexed": true,
          "internalType": "address",
          "name": "operator",
          "type": "address"
        },
        {
          "indexed": false,
          "internalType": "bool",
          "name": "approved",
          "type": "bool"
        }
      ],
      "name": "ApprovalForAll",
      "type": "event"
    },
    {
      "anonymous": false,
      "inputs": [
        {
          "indexed": false,
          "internalType": "uint256",
          "name": "_fromTokenId",
          "type": "uint256"
        },
        {
          "indexed": false,
          "internalType": "uint256",
          "name": "_toTokenId",
          "type": "uint256"
        }
      ],
      "name": "BatchMetadataUpdate",
      "type": "event"
    },
    {
      "anonymous": false,
      "inputs": [
        {
          "indexed": false,
          "internalType": "uint256",
          "name": "_tokenId",
          "type": "uint256"
        }
      ],
      "name": "MetadataUpdate",
      "type": "event"
    },
    {
      "anonymous": false,
      "inputs": [
        {
          "indexed": true,
          "internalType": "address",
          "name": "from",
          "type": "address"
        },
        {
          "indexed": true,
          "internalType": "address",
          "name": "to",
          "type": "address"
        },
        {
          "indexed": true,
          "internalType": "uint256",
          "name": "tokenId",
          "type": "uint256"
        }
      ],
      "name": "Transfer",
      "type": "event"
    },
    {
      "anonymous": false,
      "inputs": [
        {
          "indexed": false,
          "internalType": "string",
          "name": "tokenURI",
          "type": "string"
        },
        {
          "indexed": false,
          "internalType": "uint256",
          "name": "_tokenId",
          "type": "uint256"
        }
      ],
      "name": "nft721Minted",
      "type": "event"
    },
    {
      "inputs": [
        {
          "internalType": "address",
          "name": "to",
          "type": "address"
        },
        {
          "internalType": "uint256",
          "name": "tokenId",
          "type": "uint256"
        }
      ],
      "name": "approve",
      "outputs": [],
      "stateMutability": "nonpayable",
      "type": "function"
    },
    {
      "inputs": [
        {
          "internalType": "address",
          "name": "owner",
          "type": "address"
        }
      ],
      "name": "balanceOf",
      "outputs": [
        {
          "internalType": "uint256",
          "name": "",
          "type": "uint256"
        }
      ],
      "stateMutability": "view",
      "type": "function"
    },
    {
      "inputs": [
        {
          "internalType": "uint256",
          "name": "tokenId",
          "type": "uint256"
        }
      ],
      "name": "getApproved",
      "outputs": [
        {
          "internalType": "address",
          "name": "",
          "type": "address"
        }
      ],
      "stateMutability": "view",
      "type": "function"
    },
    {
      "inputs": [],
      "name": "getTokenId",
      "outputs": [
        {
          "internalType": "uint256",
          "name": "",
          "type": "uint256"
        }
      ],
      "stateMutability": "view",
      "type": "function"
    },
    {
      "inputs": [
        {
          "internalType": "address",
          "name": "owner",
          "type": "address"
        },
        {
          "internalType": "address",
          "name": "operator",
          "type": "address"
        }
      ],
      "name": "isApprovedForAll",
      "outputs": [
        {
          "internalType": "bool",
          "name": "",
          "type": "bool"
        }
      ],
      "stateMutability": "view",
      "type": "function"
    },
    {
      "inputs": [
        {
          "internalType": "address",
          "name": "owner",
          "type": "address"
        },
        {
          "internalType": "string",
          "name": "tokenURI",
          "type": "string"
        }
      ],
      "name": "mintNft",
      "outputs": [
        {
          "internalType": "uint256",
          "name": "",
          "type": "uint256"
        }
      ],
      "stateMutability": "nonpayable",
      "type": "function"
    },
    {
      "inputs": [],
      "name": "name",
      "outputs": [
        {
          "internalType": "string",
          "name": "",
          "type": "string"
        }
      ],
      "stateMutability": "view",
      "type": "function"
    },
    {
      "inputs": [
        {
          "internalType": "uint256",
          "name": "tokenId",
          "type": "uint256"
        }
      ],
      "name": "ownerOf",
      "outputs": [
        {
          "internalType": "address",
          "name": "",
          "type": "address"
        }
      ],
      "stateMutability": "view",
      "type": "function"
    },
    {
      "inputs": [
        {
          "internalType": "address",
          "name": "from",
          "type": "address"
        },
        {
          "internalType": "address",
          "name": "to",
          "type": "address"
        },
        {
          "internalType": "uint256",
          "name": "tokenId",
          "type": "uint256"
        }
      ],
      "name": "safeTransferFrom",
      "outputs": [],
      "stateMutability": "nonpayable",
      "type": "function"
    },
    {
      "inputs": [
        {
          "internalType": "address",
          "name": "from",
          "type": "address"
        },
        {
          "internalType": "address",
          "name": "to",
          "type": "address"
        },
        {
          "internalType": "uint256",
          "name": "tokenId",
          "type": "uint256"
        },
        {
          "internalType": "bytes",
          "name": "data",
          "type": "bytes"
        }
      ],
      "name": "safeTransferFrom",
      "outputs": [],
      "stateMutability": "nonpayable",
      "type": "function"
    },
    {
      "inputs": [
        {
          "internalType": "address",
          "name": "operator",
          "type": "address"
        },
        {
          "internalType": "bool",
          "name": "approved",
          "type": "bool"
        }
      ],
      "name": "setApprovalForAll",
      "outputs": [],
      "stateMutability": "nonpayable",
      "type": "function"
    },
    {
      "inputs": [
        {
          "internalType": "bytes4",
          "name": "interfaceId",
          "type": "bytes4"
        }
      ],
      "name": "supportsInterface",
      "outputs": [
        {
          "internalType": "bool",
          "name": "",
          "type": "bool"
        }
      ],
      "stateMutability": "view",
      "type": "function"
    },
    {
      "inputs": [],
      "name": "symbol",
      "outputs": [
        {
          "internalType": "string",
          "name": "",
          "type": "string"
        }
      ],
      "stateMutability": "view",
      "type": "function"
    },
    {
      "inputs": [
        {
          "internalType": "uint256",
          "name": "tokenId",
          "type": "uint256"
        }
      ],
      "name": "tokenURI",
      "outputs": [
        {
          "internalType": "string",
          "name": "",
          "type": "string"
        }
      ],
      "stateMutability": "view",
      "type": "function"
    },
    {
      "inputs": [
        {
          "internalType": "address",
          "name": "from",
          "type": "address"
        },
        {
          "internalType": "address",
          "name": "to",
          "type": "address"
        },
        {
          "internalType": "uint256",
          "name": "tokenId",
          "type": "uint256"
        }
      ],
      "name": "transferFrom",
      "outputs": [],
      "stateMutability": "nonpayable",
      "type": "function"
    }
  ],
  "transactionHash": "0xa5a241e0bbf14f178afeef14eb705ee5c651f4ccdcc51cdb607bfee56e10e0c6",
  "args": [],
  "numDeployments": 1,
  "solcInputHash": "ff9bdaf40030ea6243c286e7f2d3c397",
  "bytecode": "0x60806040523480156200001157600080fd5b506040518060400160405280600881526020017f426c6f636b4269640000000000000000000000000000000000000000000000008152506040518060400160405280600381526020017f424254000000000000000000000000000000000000000000000000000000000081525081600090816200008f91906200032c565b508060019081620000a191906200032c565b505050600060078190555062000413565b600081519050919050565b7f4e487b7100000000000000000000000000000000000000000000000000000000600052604160045260246000fd5b7f4e487b7100000000000000000000000000000000000000000000000000000000600052602260045260246000fd5b600060028204905060018216806200013457607f821691505b6020821081036200014a5762000149620000ec565b5b50919050565b60008190508160005260206000209050919050565b60006020601f8301049050919050565b600082821b905092915050565b600060088302620001b47fffffffffffffffffffffffffffffffffffffffffffffffffffffffffffffffff8262000175565b620001c0868362000175565b95508019841693508086168417925050509392505050565b6000819050919050565b6000819050919050565b60006200020d620002076200020184620001d8565b620001e2565b620001d8565b9050919050565b6000819050919050565b6200022983620001ec565b62000241620002388262000214565b84845462000182565b825550505050565b600090565b6200025862000249565b620002658184846200021e565b505050565b5b818110156200028d57620002816000826200024e565b6001810190506200026b565b5050565b601f821115620002dc57620002a68162000150565b620002b18462000165565b81016020851015620002c1578190505b620002d9620002d08562000165565b8301826200026a565b50505b505050565b600082821c905092915050565b60006200030160001984600802620002e1565b1980831691505092915050565b60006200031c8383620002ee565b9150826002028217905092915050565b6200033782620000b2565b67ffffffffffffffff811115620003535762000352620000bd565b5b6200035f82546200011b565b6200036c82828562000291565b600060209050601f831160018114620003a457600084156200038f578287015190505b6200039b85826200030e565b8655506200040b565b601f198416620003b48662000150565b60005b82811015620003de57848901518255600182019150602085019450602081019050620003b7565b86831015620003fe5784890151620003fa601f891682620002ee565b8355505b6001600288020188555050505b505050505050565b61248080620004236000396000f3fe608060405234801561001057600080fd5b50600436106100f55760003560e01c806342842e0e11610097578063a22cb46511610066578063a22cb46514610298578063b88d4fde146102b4578063c87b56dd146102d0578063e985e9c514610300576100f5565b806342842e0e146101fe5780636352211e1461021a57806370a082311461024a57806395d89b411461027a576100f5565b8063081812fc116100d3578063081812fc14610166578063095ea7b31461019657806311f87b19146101b257806323b872dd146101e2576100f5565b8063010a38f5146100fa57806301ffc9a71461011857806306fdde0314610148575b600080fd5b610102610330565b60405161010f9190611869565b60405180910390f35b610132600480360381019061012d91906118f0565b61033a565b60405161013f9190611938565b60405180910390f35b61015061039b565b60405161015d91906119e3565b60405180910390f35b610180600480360381019061017b9190611a31565b61042d565b60405161018d9190611a9f565b60405180910390f35b6101b060048036038101906101ab9190611ae6565b610449565b005b6101cc60048036038101906101c79190611c5b565b61045f565b6040516101d99190611869565b60405180910390f35b6101fc60048036038101906101f79190611cb7565b6104d4565b005b61021860048036038101906102139190611cb7565b6105d6565b005b610234600480360381019061022f9190611a31565b6105f6565b6040516102419190611a9f565b60405180910390f35b610264600480360381019061025f9190611d0a565b610608565b6040516102719190611869565b60405180910390f35b6102826106c2565b60405161028f91906119e3565b60405180910390f35b6102b260048036038101906102ad9190611d63565b610754565b005b6102ce60048036038101906102c99190611e44565b61076a565b005b6102ea60048036038101906102e59190611a31565b610787565b6040516102f791906119e3565b60405180910390f35b61031a60048036038101906103159190611ec7565b61089a565b6040516103279190611938565b60405180910390f35b6000600754905090565b6000634906490660e01b7bffffffffffffffffffffffffffffffffffffffffffffffffffffffff1916827bffffffffffffffffffffffffffffffffffffffffffffffffffffffff1916148061039457506103938261092e565b5b9050919050565b6060600080546103aa90611f36565b80601f01602080910402602001604051908101604052809291908181526020018280546103d690611f36565b80156104235780601f106103f857610100808354040283529160200191610423565b820191906000526020600020905b81548152906001019060200180831161040657829003601f168201915b5050505050905090565b600061043882610a10565b5061044282610a98565b9050919050565b61045b8282610456610ad5565b610add565b5050565b600061046d83600754610aef565b61047960075483610b0d565b60016007546104889190611f96565b6007819055507f8d2d9686d992ce3f0d4df644727dc3260f2d2c3d62c13936d3e2ddcc94656f53826007546040516104c1929190611fca565b60405180910390a1600754905092915050565b600073ffffffffffffffffffffffffffffffffffffffff168273ffffffffffffffffffffffffffffffffffffffff16036105465760006040517f64a0ae9200000000000000000000000000000000000000000000000000000000815260040161053d9190611a9f565b60405180910390fd5b600061055a8383610555610ad5565b610b69565b90508373ffffffffffffffffffffffffffffffffffffffff168173ffffffffffffffffffffffffffffffffffffffff16146105d0578382826040517f64283d7b0000000000000000000000000000000000000000000000000000000081526004016105c793929190611ffa565b60405180910390fd5b50505050565b6105f18383836040518060200160405280600081525061076a565b505050565b600061060182610a10565b9050919050565b60008073ffffffffffffffffffffffffffffffffffffffff168273ffffffffffffffffffffffffffffffffffffffff160361067b5760006040517f89c62b640000000000000000000000000000000000000000000000000000000081526004016106729190611a9f565b60405180910390fd5b600360008373ffffffffffffffffffffffffffffffffffffffff1673ffffffffffffffffffffffffffffffffffffffff168152602001908152602001600020549050919050565b6060600180546106d190611f36565b80601f01602080910402602001604051908101604052809291908181526020018280546106fd90611f36565b801561074a5780601f1061071f5761010080835404028352916020019161074a565b820191906000526020600020905b81548152906001019060200180831161072d57829003601f168201915b5050505050905090565b61076661075f610ad5565b8383610d83565b5050565b6107758484846104d4565b61078184848484610ef2565b50505050565b606061079282610a10565b5060006006600084815260200190815260200160002080546107b390611f36565b80601f01602080910402602001604051908101604052809291908181526020018280546107df90611f36565b801561082c5780601f106108015761010080835404028352916020019161082c565b820191906000526020600020905b81548152906001019060200180831161080f57829003601f168201915b50505050509050600061083d6110a9565b90506000815103610852578192505050610895565b60008251111561088757808260405160200161086f92919061206d565b60405160208183030381529060405292505050610895565b610890846110c0565b925050505b919050565b6000600560008473ffffffffffffffffffffffffffffffffffffffff1673ffffffffffffffffffffffffffffffffffffffff16815260200190815260200160002060008373ffffffffffffffffffffffffffffffffffffffff1673ffffffffffffffffffffffffffffffffffffffff16815260200190815260200160002060009054906101000a900460ff16905092915050565b60007f80ac58cd000000000000000000000000000000000000000000000000000000007bffffffffffffffffffffffffffffffffffffffffffffffffffffffff1916827bffffffffffffffffffffffffffffffffffffffffffffffffffffffff191614806109f957507f5b5e139f000000000000000000000000000000000000000000000000000000007bffffffffffffffffffffffffffffffffffffffffffffffffffffffff1916827bffffffffffffffffffffffffffffffffffffffffffffffffffffffff1916145b80610a095750610a0882611129565b5b9050919050565b600080610a1c83611193565b9050600073ffffffffffffffffffffffffffffffffffffffff168173ffffffffffffffffffffffffffffffffffffffff1603610a8f57826040517f7e273289000000000000000000000000000000000000000000000000000000008152600401610a869190611869565b60405180910390fd5b80915050919050565b60006004600083815260200190815260200160002060009054906101000a900473ffffffffffffffffffffffffffffffffffffffff169050919050565b600033905090565b610aea83838360016111d0565b505050565b610b09828260405180602001604052806000815250611395565b5050565b80600660008481526020019081526020016000209081610b2d919061223d565b507ff8e1a15aba9398e019f0b49df1a4fde98ee17ae345cb5f6b5e2c27f5033e8ce782604051610b5d9190611869565b60405180910390a15050565b600080610b7584611193565b9050600073ffffffffffffffffffffffffffffffffffffffff168373ffffffffffffffffffffffffffffffffffffffff1614610bb757610bb68184866113b1565b5b600073ffffffffffffffffffffffffffffffffffffffff168173ffffffffffffffffffffffffffffffffffffffff1614610c4857610bf96000856000806111d0565b6001600360008373ffffffffffffffffffffffffffffffffffffffff1673ffffffffffffffffffffffffffffffffffffffff168152602001908152602001600020600082825403925050819055505b600073ffffffffffffffffffffffffffffffffffffffff168573ffffffffffffffffffffffffffffffffffffffff1614610ccb576001600360008773ffffffffffffffffffffffffffffffffffffffff1673ffffffffffffffffffffffffffffffffffffffff168152602001908152602001600020600082825401925050819055505b846002600086815260200190815260200160002060006101000a81548173ffffffffffffffffffffffffffffffffffffffff021916908373ffffffffffffffffffffffffffffffffffffffff160217905550838573ffffffffffffffffffffffffffffffffffffffff168273ffffffffffffffffffffffffffffffffffffffff167fddf252ad1be2c89b69c2b068fc378daa952ba7f163c4a11628f55a4df523b3ef60405160405180910390a4809150509392505050565b600073ffffffffffffffffffffffffffffffffffffffff168273ffffffffffffffffffffffffffffffffffffffff1603610df457816040517f5b08ba18000000000000000000000000000000000000000000000000000000008152600401610deb9190611a9f565b60405180910390fd5b80600560008573ffffffffffffffffffffffffffffffffffffffff1673ffffffffffffffffffffffffffffffffffffffff16815260200190815260200160002060008473ffffffffffffffffffffffffffffffffffffffff1673ffffffffffffffffffffffffffffffffffffffff16815260200190815260200160002060006101000a81548160ff0219169083151502179055508173ffffffffffffffffffffffffffffffffffffffff168373ffffffffffffffffffffffffffffffffffffffff167f17307eab39ab6107e8899845ad3d59bd9653f200f220920489ca2b5937696c3183604051610ee59190611938565b60405180910390a3505050565b60008373ffffffffffffffffffffffffffffffffffffffff163b11156110a3578273ffffffffffffffffffffffffffffffffffffffff1663150b7a02610f36610ad5565b8685856040518563ffffffff1660e01b8152600401610f589493929190612364565b6020604051808303816000875af1925050508015610f9457506040513d601f19601f82011682018060405250810190610f9191906123c5565b60015b611018573d8060008114610fc4576040519150601f19603f3d011682016040523d82523d6000602084013e610fc9565b606091505b50600081510361101057836040517f64a0ae920000000000000000000000000000000000000000000000000000000081526004016110079190611a9f565b60405180910390fd5b805181602001fd5b63150b7a0260e01b7bffffffffffffffffffffffffffffffffffffffffffffffffffffffff1916817bffffffffffffffffffffffffffffffffffffffffffffffffffffffff1916146110a157836040517f64a0ae920000000000000000000000000000000000000000000000000000000081526004016110989190611a9f565b60405180910390fd5b505b50505050565b606060405180602001604052806000815250905090565b60606110cb82610a10565b5060006110d66110a9565b905060008151116110f65760405180602001604052806000815250611121565b8061110084611475565b60405160200161111192919061206d565b6040516020818303038152906040525b915050919050565b60007f01ffc9a7000000000000000000000000000000000000000000000000000000007bffffffffffffffffffffffffffffffffffffffffffffffffffffffff1916827bffffffffffffffffffffffffffffffffffffffffffffffffffffffff1916149050919050565b60006002600083815260200190815260200160002060009054906101000a900473ffffffffffffffffffffffffffffffffffffffff169050919050565b80806112095750600073ffffffffffffffffffffffffffffffffffffffff168273ffffffffffffffffffffffffffffffffffffffff1614155b1561133d57600061121984610a10565b9050600073ffffffffffffffffffffffffffffffffffffffff168373ffffffffffffffffffffffffffffffffffffffff161415801561128457508273ffffffffffffffffffffffffffffffffffffffff168173ffffffffffffffffffffffffffffffffffffffff1614155b80156112975750611295818461089a565b155b156112d957826040517fa9fbf51f0000000000000000000000000000000000000000000000000000000081526004016112d09190611a9f565b60405180910390fd5b811561133b57838573ffffffffffffffffffffffffffffffffffffffff168273ffffffffffffffffffffffffffffffffffffffff167f8c5be1e5ebec7d5bd14f71427d1e84f3dd0314c0f7b2291e5b200ac8c7c3b92560405160405180910390a45b505b836004600085815260200190815260200160002060006101000a81548173ffffffffffffffffffffffffffffffffffffffff021916908373ffffffffffffffffffffffffffffffffffffffff16021790555050505050565b61139f8383611543565b6113ac6000848484610ef2565b505050565b6113bc83838361163c565b61147057600073ffffffffffffffffffffffffffffffffffffffff168373ffffffffffffffffffffffffffffffffffffffff160361143157806040517f7e2732890000000000000000000000000000000000000000000000000000000081526004016114289190611869565b60405180910390fd5b81816040517f177e802f0000000000000000000000000000000000000000000000000000000081526004016114679291906123f2565b60405180910390fd5b505050565b606060006001611484846116fd565b01905060008167ffffffffffffffff8111156114a3576114a2611b30565b5b6040519080825280601f01601f1916602001820160405280156114d55781602001600182028036833780820191505090505b509050600082602001820190505b600115611538578080600190039150507f3031323334353637383961626364656600000000000000000000000000000000600a86061a8153600a858161152c5761152b61241b565b5b049450600085036114e3575b819350505050919050565b600073ffffffffffffffffffffffffffffffffffffffff168273ffffffffffffffffffffffffffffffffffffffff16036115b55760006040517f64a0ae920000000000000000000000000000000000000000000000000000000081526004016115ac9190611a9f565b60405180910390fd5b60006115c383836000610b69565b9050600073ffffffffffffffffffffffffffffffffffffffff168173ffffffffffffffffffffffffffffffffffffffff16146116375760006040517f73c6ac6e00000000000000000000000000000000000000000000000000000000815260040161162e9190611a9f565b60405180910390fd5b505050565b60008073ffffffffffffffffffffffffffffffffffffffff168373ffffffffffffffffffffffffffffffffffffffff16141580156116f457508273ffffffffffffffffffffffffffffffffffffffff168473ffffffffffffffffffffffffffffffffffffffff1614806116b557506116b4848461089a565b5b806116f357508273ffffffffffffffffffffffffffffffffffffffff166116db83610a98565b73ffffffffffffffffffffffffffffffffffffffff16145b5b90509392505050565b600080600090507a184f03e93ff9f4daa797ed6e38ed64bf6a1f010000000000000000831061175b577a184f03e93ff9f4daa797ed6e38ed64bf6a1f01000000000000000083816117515761175061241b565b5b0492506040810190505b6d04ee2d6d415b85acef81000000008310611798576d04ee2d6d415b85acef8100000000838161178e5761178d61241b565b5b0492506020810190505b662386f26fc1000083106117c757662386f26fc1000083816117bd576117bc61241b565b5b0492506010810190505b6305f5e10083106117f0576305f5e10083816117e6576117e561241b565b5b0492506008810190505b612710831061181557612710838161180b5761180a61241b565b5b0492506004810190505b60648310611838576064838161182e5761182d61241b565b5b0492506002810190505b600a8310611847576001810190505b80915050919050565b6000819050919050565b61186381611850565b82525050565b600060208201905061187e600083018461185a565b92915050565b6000604051905090565b600080fd5b600080fd5b60007fffffffff0000000000000000000000000000000000000000000000000000000082169050919050565b6118cd81611898565b81146118d857600080fd5b50565b6000813590506118ea816118c4565b92915050565b6000602082840312156119065761190561188e565b5b6000611914848285016118db565b91505092915050565b60008115159050919050565b6119328161191d565b82525050565b600060208201905061194d6000830184611929565b92915050565b600081519050919050565b600082825260208201905092915050565b60005b8381101561198d578082015181840152602081019050611972565b60008484015250505050565b6000601f19601f8301169050919050565b60006119b582611953565b6119bf818561195e565b93506119cf81856020860161196f565b6119d881611999565b840191505092915050565b600060208201905081810360008301526119fd81846119aa565b905092915050565b611a0e81611850565b8114611a1957600080fd5b50565b600081359050611a2b81611a05565b92915050565b600060208284031215611a4757611a4661188e565b5b6000611a5584828501611a1c565b91505092915050565b600073ffffffffffffffffffffffffffffffffffffffff82169050919050565b6000611a8982611a5e565b9050919050565b611a9981611a7e565b82525050565b6000602082019050611ab46000830184611a90565b92915050565b611ac381611a7e565b8114611ace57600080fd5b50565b600081359050611ae081611aba565b92915050565b60008060408385031215611afd57611afc61188e565b5b6000611b0b85828601611ad1565b9250506020611b1c85828601611a1c565b9150509250929050565b600080fd5b600080fd5b7f4e487b7100000000000000000000000000000000000000000000000000000000600052604160045260246000fd5b611b6882611999565b810181811067ffffffffffffffff82111715611b8757611b86611b30565b5b80604052505050565b6000611b9a611884565b9050611ba68282611b5f565b919050565b600067ffffffffffffffff821115611bc657611bc5611b30565b5b611bcf82611999565b9050602081019050919050565b82818337600083830152505050565b6000611bfe611bf984611bab565b611b90565b905082815260208101848484011115611c1a57611c19611b2b565b5b611c25848285611bdc565b509392505050565b600082601f830112611c4257611c41611b26565b5b8135611c52848260208601611beb565b91505092915050565b60008060408385031215611c7257611c7161188e565b5b6000611c8085828601611ad1565b925050602083013567ffffffffffffffff811115611ca157611ca0611893565b5b611cad85828601611c2d565b9150509250929050565b600080600060608486031215611cd057611ccf61188e565b5b6000611cde86828701611ad1565b9350506020611cef86828701611ad1565b9250506040611d0086828701611a1c565b9150509250925092565b600060208284031215611d2057611d1f61188e565b5b6000611d2e84828501611ad1565b91505092915050565b611d408161191d565b8114611d4b57600080fd5b50565b600081359050611d5d81611d37565b92915050565b60008060408385031215611d7a57611d7961188e565b5b6000611d8885828601611ad1565b9250506020611d9985828601611d4e565b9150509250929050565b600067ffffffffffffffff821115611dbe57611dbd611b30565b5b611dc782611999565b9050602081019050919050565b6000611de7611de284611da3565b611b90565b905082815260208101848484011115611e0357611e02611b2b565b5b611e0e848285611bdc565b509392505050565b600082601f830112611e2b57611e2a611b26565b5b8135611e3b848260208601611dd4565b91505092915050565b60008060008060808587031215611e5e57611e5d61188e565b5b6000611e6c87828801611ad1565b9450506020611e7d87828801611ad1565b9350506040611e8e87828801611a1c565b925050606085013567ffffffffffffffff811115611eaf57611eae611893565b5b611ebb87828801611e16565b91505092959194509250565b60008060408385031215611ede57611edd61188e565b5b6000611eec85828601611ad1565b9250506020611efd85828601611ad1565b9150509250929050565b7f4e487b7100000000000000000000000000000000000000000000000000000000600052602260045260246000fd5b60006002820490506001821680611f4e57607f821691505b602082108103611f6157611f60611f07565b5b50919050565b7f4e487b7100000000000000000000000000000000000000000000000000000000600052601160045260246000fd5b6000611fa182611850565b9150611fac83611850565b9250828201905080821115611fc457611fc3611f67565b5b92915050565b60006040820190508181036000830152611fe481856119aa565b9050611ff3602083018461185a565b9392505050565b600060608201905061200f6000830186611a90565b61201c602083018561185a565b6120296040830184611a90565b949350505050565b600081905092915050565b600061204782611953565b6120518185612031565b935061206181856020860161196f565b80840191505092915050565b6000612079828561203c565b9150612085828461203c565b91508190509392505050565b60008190508160005260206000209050919050565b60006020601f8301049050919050565b600082821b905092915050565b6000600883026120f37fffffffffffffffffffffffffffffffffffffffffffffffffffffffffffffffff826120b6565b6120fd86836120b6565b95508019841693508086168417925050509392505050565b6000819050919050565b600061213a61213561213084611850565b612115565b611850565b9050919050565b6000819050919050565b6121548361211f565b61216861216082612141565b8484546120c3565b825550505050565b600090565b61217d612170565b61218881848461214b565b505050565b5b818110156121ac576121a1600082612175565b60018101905061218e565b5050565b601f8211156121f1576121c281612091565b6121cb846120a6565b810160208510156121da578190505b6121ee6121e6856120a6565b83018261218d565b50505b505050565b600082821c905092915050565b6000612214600019846008026121f6565b1980831691505092915050565b600061222d8383612203565b9150826002028217905092915050565b61224682611953565b67ffffffffffffffff81111561225f5761225e611b30565b5b6122698254611f36565b6122748282856121b0565b600060209050601f8311600181146122a75760008415612295578287015190505b61229f8582612221565b865550612307565b601f1984166122b586612091565b60005b828110156122dd578489015182556001820191506020850194506020810190506122b8565b868310156122fa57848901516122f6601f891682612203565b8355505b6001600288020188555050505b505050505050565b600081519050919050565b600082825260208201905092915050565b60006123368261230f565b612340818561231a565b935061235081856020860161196f565b61235981611999565b840191505092915050565b60006080820190506123796000830187611a90565b6123866020830186611a90565b612393604083018561185a565b81810360608301526123a5818461232b565b905095945050505050565b6000815190506123bf816118c4565b92915050565b6000602082840312156123db576123da61188e565b5b60006123e9848285016123b0565b91505092915050565b60006040820190506124076000830185611a90565b612414602083018461185a565b9392505050565b7f4e487b7100000000000000000000000000000000000000000000000000000000600052601260045260246000fdfea2646970667358221220465e63e3ea3621b1d0def17c5ba944404e56583f980fcc633dae94558b61071064736f6c63430008140033",
  "devdoc": {
    "errors": {
      "ERC721IncorrectOwner(address,uint256,address)": [
        {
          "details": "Indicates an error related to the ownership over a particular token. Used in transfers.",
          "params": {
            "owner": "Address of the current owner of a token.",
            "sender": "Address whose tokens are being transferred.",
            "tokenId": "Identifier number of a token."
          }
        }
      ],
      "ERC721InsufficientApproval(address,uint256)": [
        {
          "details": "Indicates a failure with the `operator`s approval. Used in transfers.",
          "params": {
            "operator": "Address that may be allowed to operate on tokens without being their owner.",
            "tokenId": "Identifier number of a token."
          }
        }
      ],
      "ERC721InvalidApprover(address)": [
        {
          "details": "Indicates a failure with the `approver` of a token to be approved. Used in approvals.",
          "params": {
            "approver": "Address initiating an approval operation."
          }
        }
      ],
      "ERC721InvalidOperator(address)": [
        {
          "details": "Indicates a failure with the `operator` to be approved. Used in approvals.",
          "params": {
            "operator": "Address that may be allowed to operate on tokens without being their owner."
          }
        }
      ],
      "ERC721InvalidOwner(address)": [
        {
          "details": "Indicates that an address can't be an owner. For example, `address(0)` is a forbidden owner in EIP-20. Used in balance queries.",
          "params": {
            "owner": "Address of the current owner of a token."
          }
        }
      ],
      "ERC721InvalidReceiver(address)": [
        {
          "details": "Indicates a failure with the token `receiver`. Used in transfers.",
          "params": {
            "receiver": "Address to which tokens are being transferred."
          }
        }
      ],
      "ERC721InvalidSender(address)": [
        {
          "details": "Indicates a failure with the token `sender`. Used in transfers.",
          "params": {
            "sender": "Address whose tokens are being transferred."
          }
        }
      ],
      "ERC721NonexistentToken(uint256)": [
        {
          "details": "Indicates a `tokenId` whose `owner` is the zero address.",
          "params": {
            "tokenId": "Identifier number of a token."
          }
        }
      ]
    },
    "events": {
      "Approval(address,address,uint256)": {
        "details": "Emitted when `owner` enables `approved` to manage the `tokenId` token."
      },
      "ApprovalForAll(address,address,bool)": {
        "details": "Emitted when `owner` enables or disables (`approved`) `operator` to manage all of its assets."
      },
      "BatchMetadataUpdate(uint256,uint256)": {
        "details": "This event emits when the metadata of a range of tokens is changed. So that the third-party platforms such as NFT market could timely update the images and related attributes of the NFTs."
      },
      "MetadataUpdate(uint256)": {
        "details": "This event emits when the metadata of a token is changed. So that the third-party platforms such as NFT market could timely update the images and related attributes of the NFT."
      },
      "Transfer(address,address,uint256)": {
        "details": "Emitted when `tokenId` token is transferred from `from` to `to`."
      }
    },
    "kind": "dev",
    "methods": {
      "approve(address,uint256)": {
        "details": "See {IERC721-approve}."
      },
      "balanceOf(address)": {
        "details": "See {IERC721-balanceOf}."
      },
      "getApproved(uint256)": {
        "details": "See {IERC721-getApproved}."
      },
      "isApprovedForAll(address,address)": {
        "details": "See {IERC721-isApprovedForAll}."
      },
      "name()": {
        "details": "See {IERC721Metadata-name}."
      },
      "ownerOf(uint256)": {
        "details": "See {IERC721-ownerOf}."
      },
      "safeTransferFrom(address,address,uint256)": {
        "details": "See {IERC721-safeTransferFrom}."
      },
      "safeTransferFrom(address,address,uint256,bytes)": {
        "details": "See {IERC721-safeTransferFrom}."
      },
      "setApprovalForAll(address,bool)": {
        "details": "See {IERC721-setApprovalForAll}."
      },
      "supportsInterface(bytes4)": {
        "details": "See {IERC165-supportsInterface}"
      },
      "symbol()": {
        "details": "See {IERC721Metadata-symbol}."
      },
      "tokenURI(uint256)": {
        "details": "See {IERC721Metadata-tokenURI}."
      },
      "transferFrom(address,address,uint256)": {
        "details": "See {IERC721-transferFrom}."
      }
    },
    "version": 1
  },
  "userdoc": {
    "kind": "user",
    "methods": {},
    "version": 1
  },
  "storageLayout": {
    "storage": [
      {
        "astId": 349,
        "contract": "contracts/nft721.sol:nft721",
        "label": "_name",
        "offset": 0,
        "slot": "0",
        "type": "t_string_storage"
      },
      {
        "astId": 351,
        "contract": "contracts/nft721.sol:nft721",
        "label": "_symbol",
        "offset": 0,
        "slot": "1",
        "type": "t_string_storage"
      },
      {
        "astId": 355,
        "contract": "contracts/nft721.sol:nft721",
        "label": "_owners",
        "offset": 0,
        "slot": "2",
        "type": "t_mapping(t_uint256,t_address)"
      },
      {
        "astId": 359,
        "contract": "contracts/nft721.sol:nft721",
        "label": "_balances",
        "offset": 0,
        "slot": "3",
        "type": "t_mapping(t_address,t_uint256)"
      },
      {
        "astId": 363,
        "contract": "contracts/nft721.sol:nft721",
        "label": "_tokenApprovals",
        "offset": 0,
        "slot": "4",
        "type": "t_mapping(t_uint256,t_address)"
      },
      {
        "astId": 369,
        "contract": "contracts/nft721.sol:nft721",
        "label": "_operatorApprovals",
        "offset": 0,
        "slot": "5",
        "type": "t_mapping(t_address,t_mapping(t_address,t_bool))"
      },
      {
        "astId": 1488,
        "contract": "contracts/nft721.sol:nft721",
        "label": "_tokenURIs",
        "offset": 0,
        "slot": "6",
        "type": "t_mapping(t_uint256,t_string_storage)"
      },
      {
        "astId": 3388,
        "contract": "contracts/nft721.sol:nft721",
        "label": "_tokenId",
        "offset": 0,
        "slot": "7",
        "type": "t_uint256"
      }
    ],
    "types": {
      "t_address": {
        "encoding": "inplace",
        "label": "address",
        "numberOfBytes": "20"
      },
      "t_bool": {
        "encoding": "inplace",
        "label": "bool",
        "numberOfBytes": "1"
      },
      "t_mapping(t_address,t_bool)": {
        "encoding": "mapping",
        "key": "t_address",
        "label": "mapping(address => bool)",
        "numberOfBytes": "32",
        "value": "t_bool"
      },
      "t_mapping(t_address,t_mapping(t_address,t_bool))": {
        "encoding": "mapping",
        "key": "t_address",
        "label": "mapping(address => mapping(address => bool))",
        "numberOfBytes": "32",
        "value": "t_mapping(t_address,t_bool)"
      },
      "t_mapping(t_address,t_uint256)": {
        "encoding": "mapping",
        "key": "t_address",
        "label": "mapping(address => uint256)",
        "numberOfBytes": "32",
        "value": "t_uint256"
      },
      "t_mapping(t_uint256,t_address)": {
        "encoding": "mapping",
        "key": "t_uint256",
        "label": "mapping(uint256 => address)",
        "numberOfBytes": "32",
        "value": "t_address"
      },
      "t_mapping(t_uint256,t_string_storage)": {
        "encoding": "mapping",
        "key": "t_uint256",
        "label": "mapping(uint256 => string)",
        "numberOfBytes": "32",
        "value": "t_string_storage"
      },
      "t_string_storage": {
        "encoding": "bytes",
        "label": "string",
        "numberOfBytes": "32"
      },
      "t_uint256": {
        "encoding": "inplace",
        "label": "uint256",
        "numberOfBytes": "32"
      }
    }
  }
}